{
  "address": "0xb2df6667FC4bcDd455Ef82d819bddD1720bb1f43",
  "abi": [
    {
      "inputs": [
        {
          "internalType": "uint256",
          "name": "entranceFee",
          "type": "uint256"
        },
        {
          "internalType": "address",
          "name": "vrfCoordinatorV2",
          "type": "address"
        },
        {
          "internalType": "bytes32",
          "name": "maxGasWillingToPayForRandomNumber",
          "type": "bytes32"
        },
        {
          "internalType": "uint64",
          "name": "subscriptionID",
          "type": "uint64"
        },
        {
          "internalType": "uint32",
          "name": "callbackGasLimit",
          "type": "uint32"
        },
        {
          "internalType": "uint256",
          "name": "interval",
          "type": "uint256"
        }
      ],
      "stateMutability": "nonpayable",
      "type": "constructor"
    },
    {
      "inputs": [],
      "name": "NotEnoughFunds",
      "type": "error"
    },
    {
      "inputs": [
        {
          "internalType": "address",
          "name": "have",
          "type": "address"
        },
        {
          "internalType": "address",
          "name": "want",
          "type": "address"
        }
      ],
      "name": "OnlyCoordinatorCanFulfill",
      "type": "error"
    },
    {
      "inputs": [],
      "name": "RaffleNotOpen",
      "type": "error"
    },
    {
      "inputs": [
        {
          "internalType": "uint256",
          "name": "currentBalance",
          "type": "uint256"
        },
        {
          "internalType": "uint256",
          "name": "numPlayers",
          "type": "uint256"
        },
        {
          "internalType": "uint256",
          "name": "raffleState",
          "type": "uint256"
        }
      ],
      "name": "Raffle_UpkeepNotNeeded",
      "type": "error"
    },
    {
      "inputs": [],
      "name": "TransferFailded",
      "type": "error"
    },
    {
      "anonymous": false,
      "inputs": [
        {
          "indexed": true,
          "internalType": "address",
          "name": "player",
          "type": "address"
        }
      ],
      "name": "RaffleEnter",
      "type": "event"
    },
    {
      "anonymous": false,
      "inputs": [
        {
          "indexed": true,
          "internalType": "uint256",
          "name": "requestId",
          "type": "uint256"
        }
      ],
      "name": "RequestedRaffleWinner",
      "type": "event"
    },
    {
      "anonymous": false,
      "inputs": [
        {
          "indexed": true,
          "internalType": "address",
          "name": "winner",
          "type": "address"
        }
      ],
      "name": "WinnerPicked",
      "type": "event"
    },
    {
      "inputs": [
        {
          "internalType": "bytes",
          "name": "",
          "type": "bytes"
        }
      ],
      "name": "checkUpkeep",
      "outputs": [
        {
          "internalType": "bool",
          "name": "upkeepNeeded",
          "type": "bool"
        },
        {
          "internalType": "bytes",
          "name": "",
          "type": "bytes"
        }
      ],
      "stateMutability": "view",
      "type": "function"
    },
    {
      "inputs": [],
      "name": "enterRaffle",
      "outputs": [],
      "stateMutability": "payable",
      "type": "function"
    },
    {
      "inputs": [],
      "name": "getCurrentPrizeMoney",
      "outputs": [
        {
          "internalType": "uint256",
          "name": "",
          "type": "uint256"
        }
      ],
      "stateMutability": "view",
      "type": "function"
    },
    {
      "inputs": [],
      "name": "getEntranceFee",
      "outputs": [
        {
          "internalType": "uint256",
          "name": "",
          "type": "uint256"
        }
      ],
      "stateMutability": "view",
      "type": "function"
    },
    {
      "inputs": [],
      "name": "getInterval",
      "outputs": [
        {
          "internalType": "uint256",
          "name": "",
          "type": "uint256"
        }
      ],
      "stateMutability": "view",
      "type": "function"
    },
    {
      "inputs": [],
      "name": "getLatestTimeStamp",
      "outputs": [
        {
          "internalType": "uint256",
          "name": "",
          "type": "uint256"
        }
      ],
      "stateMutability": "view",
      "type": "function"
    },
    {
      "inputs": [],
      "name": "getNumWords",
      "outputs": [
        {
          "internalType": "uint256",
          "name": "",
          "type": "uint256"
        }
      ],
      "stateMutability": "pure",
      "type": "function"
    },
    {
      "inputs": [],
      "name": "getNumberOfPlayers",
      "outputs": [
        {
          "internalType": "uint256",
          "name": "",
          "type": "uint256"
        }
      ],
      "stateMutability": "view",
      "type": "function"
    },
    {
      "inputs": [
        {
          "internalType": "uint256",
          "name": "index",
          "type": "uint256"
        }
      ],
      "name": "getPlayer",
      "outputs": [
        {
          "internalType": "address",
          "name": "",
          "type": "address"
        }
      ],
      "stateMutability": "view",
      "type": "function"
    },
    {
      "inputs": [],
      "name": "getRaffleState",
      "outputs": [
        {
          "internalType": "enum Raffle.RaffleState",
          "name": "",
          "type": "uint8"
        }
      ],
      "stateMutability": "view",
      "type": "function"
    },
    {
      "inputs": [],
      "name": "getRecentWinner",
      "outputs": [
        {
          "internalType": "address",
          "name": "",
          "type": "address"
        }
      ],
      "stateMutability": "view",
      "type": "function"
    },
    {
      "inputs": [],
      "name": "getRequestConfirmations",
      "outputs": [
        {
          "internalType": "uint256",
          "name": "",
          "type": "uint256"
        }
      ],
      "stateMutability": "pure",
      "type": "function"
    },
    {
      "inputs": [
        {
          "internalType": "bytes",
          "name": "",
          "type": "bytes"
        }
      ],
      "name": "performUpkeep",
      "outputs": [],
      "stateMutability": "nonpayable",
      "type": "function"
    },
    {
      "inputs": [
        {
          "internalType": "uint256",
          "name": "requestId",
          "type": "uint256"
        },
        {
          "internalType": "uint256[]",
          "name": "randomWords",
          "type": "uint256[]"
        }
      ],
      "name": "rawFulfillRandomWords",
      "outputs": [],
      "stateMutability": "nonpayable",
      "type": "function"
    }
  ],
  "transactionHash": "0xb7813991b52df3caf79e53d7cc19bc9e65f74e1ce99dbbafccc372e584180c34",
  "args": [
    "10000000000000000",
    "0x6168499c0cFfCaCD319c818142124B7A15E857ab",
    "0xd89b2bf150e3b9e13446986e571fb9cab24b13cea0a43ea20a6049a85cc807cc",
    "19682",
    "500000",
    "30"
  ],
  "numDeployments": 2,
  "solcInputHash": "63dd201a5bad7e5c2e8db85a7729fdd0",
  "bytecode": "0x6101606040523480156200001257600080fd5b5060405162001bb438038062001bb4833981810160405281019062000038919062000294565b848073ffffffffffffffffffffffffffffffffffffffff1660808173ffffffffffffffffffffffffffffffffffffffff1681525050508560a081815250508473ffffffffffffffffffffffffffffffffffffffff1660c08173ffffffffffffffffffffffffffffffffffffffff16815250508360e081815250508267ffffffffffffffff166101008167ffffffffffffffff16815250508163ffffffff166101208163ffffffff16815250506000600160146101000a81548160ff021916908360018111156200010d576200010c62000330565b5b0217905550426002819055508061014081815250505050505050506200035f565b600080fd5b6000819050919050565b620001488162000133565b81146200015457600080fd5b50565b60008151905062000168816200013d565b92915050565b600073ffffffffffffffffffffffffffffffffffffffff82169050919050565b60006200019b826200016e565b9050919050565b620001ad816200018e565b8114620001b957600080fd5b50565b600081519050620001cd81620001a2565b92915050565b6000819050919050565b620001e881620001d3565b8114620001f457600080fd5b50565b6000815190506200020881620001dd565b92915050565b600067ffffffffffffffff82169050919050565b6200022d816200020e565b81146200023957600080fd5b50565b6000815190506200024d8162000222565b92915050565b600063ffffffff82169050919050565b6200026e8162000253565b81146200027a57600080fd5b50565b6000815190506200028e8162000263565b92915050565b60008060008060008060c08789031215620002b457620002b36200012e565b5b6000620002c489828a0162000157565b9650506020620002d789828a01620001bc565b9550506040620002ea89828a01620001f7565b9450506060620002fd89828a016200023c565b93505060806200031089828a016200027d565b92505060a06200032389828a0162000157565b9150509295509295509295565b7f4e487b7100000000000000000000000000000000000000000000000000000000600052602160045260246000fd5b60805160a05160c05160e0516101005161012051610140516117e5620003cf600039600081816106d1015261085b01526000610bb901526000610b9601526000610b7501526000610b39015260008181610340015261043d01526000818161037d01526103d101526117e56000f3fe6080604052600436106100dd5760003560e01c806353a2c19a1161007f57806391ad27b41161005957806391ad27b41461027e578063e55ae4e8146102a9578063e926b8ed146102e6578063fd6673f514610311576100dd565b806353a2c19a146101ea5780635f1b0fd8146102155780636e04ff0d14610240576100dd565b80632cfcc539116100bb5780632cfcc53914610161578063320229eb1461016b5780634585e33b14610196578063473f1ddc146101bf576100dd565b806309bc33a7146100e2578063115cbaf51461010d5780631fe543e314610138575b600080fd5b3480156100ee57600080fd5b506100f761033c565b6040516101049190610e99565b60405180910390f35b34801561011957600080fd5b50610122610364565b60405161012f9190610f2b565b60405180910390f35b34801561014457600080fd5b5061015f600480360381019061015a91906110df565b61037b565b005b61016961043b565b005b34801561017757600080fd5b506101806105aa565b60405161018d9190610e99565b60405180910390f35b3480156101a257600080fd5b506101bd60048036038101906101b89190611196565b6105b4565b005b3480156101cb57600080fd5b506101d461064a565b6040516101e19190611224565b60405180910390f35b3480156101f657600080fd5b506101ff610674565b60405161020c9190610e99565b60405180910390f35b34801561022157600080fd5b5061022a610681565b6040516102379190610e99565b60405180910390f35b34801561024c57600080fd5b50610267600480360381019061026291906112f4565b61068e565b6040516102759291906113e0565b60405180910390f35b34801561028a57600080fd5b50610293610857565b6040516102a09190610e99565b60405180910390f35b3480156102b557600080fd5b506102d060048036038101906102cb9190611410565b61087f565b6040516102dd9190611224565b60405180910390f35b3480156102f257600080fd5b506102fb6108c6565b6040516103089190610e99565b60405180910390f35b34801561031d57600080fd5b506103266108ce565b6040516103339190610e99565b60405180910390f35b60007f0000000000000000000000000000000000000000000000000000000000000000905090565b6000600160149054906101000a900460ff16905090565b7f000000000000000000000000000000000000000000000000000000000000000073ffffffffffffffffffffffffffffffffffffffff163373ffffffffffffffffffffffffffffffffffffffff161461042d57337f00000000000000000000000000000000000000000000000000000000000000006040517f1cf993f400000000000000000000000000000000000000000000000000000000815260040161042492919061143d565b60405180910390fd5b61043782826108da565b5050565b7f0000000000000000000000000000000000000000000000000000000000000000341015610495576040517f81b5ad6800000000000000000000000000000000000000000000000000000000815260040160405180910390fd5b600060018111156104a9576104a8610eb4565b5b600160149054906101000a900460ff1660018111156104cb576104ca610eb4565b5b14610502576040517fee0eb16d00000000000000000000000000000000000000000000000000000000815260040160405180910390fd5b6000339080600181540180825580915050600190039060005260206000200160009091909190916101000a81548173ffffffffffffffffffffffffffffffffffffffff021916908373ffffffffffffffffffffffffffffffffffffffff1602179055503373ffffffffffffffffffffffffffffffffffffffff167f0805e1d667bddb8a95f0f09880cf94f403fb596ce79928d9f29b74203ba284d460405160405180910390a2565b6000600254905090565b60006105ce6040518060200160405280600081525061068e565b5090508061063d5747600080549050600160149054906101000a900460ff1660018111156105ff576105fe610eb4565b5b6040517fe059521b00000000000000000000000000000000000000000000000000000000815260040161063493929190611466565b60405180910390fd5b610645610b0b565b505050565b6000600160009054906101000a900473ffffffffffffffffffffffffffffffffffffffff16905090565b6000600161ffff16905090565b6000600361ffff16905090565b600060606000600160149054906101000a900460ff1660018111156106b6576106b5610eb4565b5b600060018111156106ca576106c9610eb4565b5b14905060007f0000000000000000000000000000000000000000000000000000000000000000600254426106fe91906114cc565b119050600080600080549050119050600080471190506107526040518060400160405280600881526020017f69734f70656e3a20000000000000000000000000000000000000000000000000815250610c7e565b61075b84610d17565b6107996040518060400160405280600c81526020017f74696d65205061737365643a0000000000000000000000000000000000000000815250610c7e565b6107a283610d17565b6107e06040518060400160405280600a81526020017f686173506c617965727300000000000000000000000000000000000000000000815250610c7e565b6107e982610d17565b6108276040518060400160405280600c81526020017f6861732062616c616e63653a0000000000000000000000000000000000000000815250610c7e565b61083081610d17565b83801561083a5750825b80156108435750815b801561084c5750805b955050505050915091565b60007f0000000000000000000000000000000000000000000000000000000000000000905090565b600080828154811061089457610893611500565b5b9060005260206000200160009054906101000a900473ffffffffffffffffffffffffffffffffffffffff169050919050565b600047905090565b60008080549050905090565b60008080549050826000815181106108f5576108f4611500565b5b6020026020010151610907919061155e565b9050600080828154811061091e5761091d611500565b5b9060005260206000200160009054906101000a900473ffffffffffffffffffffffffffffffffffffffff16905080600160006101000a81548173ffffffffffffffffffffffffffffffffffffffff021916908373ffffffffffffffffffffffffffffffffffffffff1602179055506000600160146101000a81548160ff021916908360018111156109b2576109b1610eb4565b5b0217905550600067ffffffffffffffff8111156109d2576109d1610f9c565b5b604051908082528060200260200182016040528015610a005781602001602082028036833780820191505090505b5060009080519060200190610a16929190610dd9565b504260028190555060008173ffffffffffffffffffffffffffffffffffffffff1647604051610a44906115c0565b60006040518083038185875af1925050503d8060008114610a81576040519150601f19603f3d011682016040523d82523d6000602084013e610a86565b606091505b5050905080610ac1576040517f5e72779500000000000000000000000000000000000000000000000000000000815260040160405180910390fd5b8173ffffffffffffffffffffffffffffffffffffffff167f5b690ec4a06fe979403046eaeea5b3ce38524683c3001f662c8b5a829632f7df60405160405180910390a25050505050565b60018060146101000a81548160ff02191690836001811115610b3057610b2f610eb4565b5b021790555060007f000000000000000000000000000000000000000000000000000000000000000073ffffffffffffffffffffffffffffffffffffffff16635d3b1d307f00000000000000000000000000000000000000000000000000000000000000007f000000000000000000000000000000000000000000000000000000000000000060037f000000000000000000000000000000000000000000000000000000000000000060016040518663ffffffff1660e01b8152600401610bfa959493929190611688565b602060405180830381600087803b158015610c1457600080fd5b505af1158015610c28573d6000803e3d6000fd5b505050506040513d601f19601f82011682018060405250810190610c4c91906116f0565b9050807fcd6e45c8998311cab7e9d4385596cac867e20a0587194b954fa3a731c93ce78b60405160405180910390a250565b610d1481604051602401610c929190611772565b6040516020818303038152906040527f41304fac000000000000000000000000000000000000000000000000000000007bffffffffffffffffffffffffffffffffffffffffffffffffffffffff19166020820180517bffffffffffffffffffffffffffffffffffffffffffffffffffffffff8381831617835250505050610db0565b50565b610dad81604051602401610d2b9190611794565b6040516020818303038152906040527f32458eed000000000000000000000000000000000000000000000000000000007bffffffffffffffffffffffffffffffffffffffffffffffffffffffff19166020820180517bffffffffffffffffffffffffffffffffffffffffffffffffffffffff8381831617835250505050610db0565b50565b60008151905060006a636f6e736f6c652e6c6f679050602083016000808483855afa5050505050565b828054828255906000526020600020908101928215610e52579160200282015b82811115610e515782518260006101000a81548173ffffffffffffffffffffffffffffffffffffffff021916908373ffffffffffffffffffffffffffffffffffffffff16021790555091602001919060010190610df9565b5b509050610e5f9190610e63565b5090565b5b80821115610e7c576000816000905550600101610e64565b5090565b6000819050919050565b610e9381610e80565b82525050565b6000602082019050610eae6000830184610e8a565b92915050565b7f4e487b7100000000000000000000000000000000000000000000000000000000600052602160045260246000fd5b60028110610ef457610ef3610eb4565b5b50565b6000819050610f0582610ee3565b919050565b6000610f1582610ef7565b9050919050565b610f2581610f0a565b82525050565b6000602082019050610f406000830184610f1c565b92915050565b6000604051905090565b600080fd5b600080fd5b610f6381610e80565b8114610f6e57600080fd5b50565b600081359050610f8081610f5a565b92915050565b600080fd5b6000601f19601f8301169050919050565b7f4e487b7100000000000000000000000000000000000000000000000000000000600052604160045260246000fd5b610fd482610f8b565b810181811067ffffffffffffffff82111715610ff357610ff2610f9c565b5b80604052505050565b6000611006610f46565b90506110128282610fcb565b919050565b600067ffffffffffffffff82111561103257611031610f9c565b5b602082029050602081019050919050565b600080fd5b600061105b61105684611017565b610ffc565b9050808382526020820190506020840283018581111561107e5761107d611043565b5b835b818110156110a757806110938882610f71565b845260208401935050602081019050611080565b5050509392505050565b600082601f8301126110c6576110c5610f86565b5b81356110d6848260208601611048565b91505092915050565b600080604083850312156110f6576110f5610f50565b5b600061110485828601610f71565b925050602083013567ffffffffffffffff81111561112557611124610f55565b5b611131858286016110b1565b9150509250929050565b600080fd5b60008083601f84011261115657611155610f86565b5b8235905067ffffffffffffffff8111156111735761117261113b565b5b60208301915083600182028301111561118f5761118e611043565b5b9250929050565b600080602083850312156111ad576111ac610f50565b5b600083013567ffffffffffffffff8111156111cb576111ca610f55565b5b6111d785828601611140565b92509250509250929050565b600073ffffffffffffffffffffffffffffffffffffffff82169050919050565b600061120e826111e3565b9050919050565b61121e81611203565b82525050565b60006020820190506112396000830184611215565b92915050565b600080fd5b600067ffffffffffffffff82111561125f5761125e610f9c565b5b61126882610f8b565b9050602081019050919050565b82818337600083830152505050565b600061129761129284611244565b610ffc565b9050828152602081018484840111156112b3576112b261123f565b5b6112be848285611275565b509392505050565b600082601f8301126112db576112da610f86565b5b81356112eb848260208601611284565b91505092915050565b60006020828403121561130a57611309610f50565b5b600082013567ffffffffffffffff81111561132857611327610f55565b5b611334848285016112c6565b91505092915050565b60008115159050919050565b6113528161133d565b82525050565b600081519050919050565b600082825260208201905092915050565b60005b83811015611392578082015181840152602081019050611377565b838111156113a1576000848401525b50505050565b60006113b282611358565b6113bc8185611363565b93506113cc818560208601611374565b6113d581610f8b565b840191505092915050565b60006040820190506113f56000830185611349565b818103602083015261140781846113a7565b90509392505050565b60006020828403121561142657611425610f50565b5b600061143484828501610f71565b91505092915050565b60006040820190506114526000830185611215565b61145f6020830184611215565b9392505050565b600060608201905061147b6000830186610e8a565b6114886020830185610e8a565b6114956040830184610e8a565b949350505050565b7f4e487b7100000000000000000000000000000000000000000000000000000000600052601160045260246000fd5b60006114d782610e80565b91506114e283610e80565b9250828210156114f5576114f461149d565b5b828203905092915050565b7f4e487b7100000000000000000000000000000000000000000000000000000000600052603260045260246000fd5b7f4e487b7100000000000000000000000000000000000000000000000000000000600052601260045260246000fd5b600061156982610e80565b915061157483610e80565b9250826115845761158361152f565b5b828206905092915050565b600081905092915050565b50565b60006115aa60008361158f565b91506115b58261159a565b600082019050919050565b60006115cb8261159d565b9150819050919050565b6000819050919050565b6115e8816115d5565b82525050565b600067ffffffffffffffff82169050919050565b61160b816115ee565b82525050565b600061ffff82169050919050565b61162881611611565b82525050565b600063ffffffff82169050919050565b6116478161162e565b82525050565b6000819050919050565b600061167261166d61166884611611565b61164d565b61162e565b9050919050565b61168281611657565b82525050565b600060a08201905061169d60008301886115df565b6116aa6020830187611602565b6116b7604083018661161f565b6116c4606083018561163e565b6116d16080830184611679565b9695505050505050565b6000815190506116ea81610f5a565b92915050565b60006020828403121561170657611705610f50565b5b6000611714848285016116db565b91505092915050565b600081519050919050565b600082825260208201905092915050565b60006117448261171d565b61174e8185611728565b935061175e818560208601611374565b61176781610f8b565b840191505092915050565b6000602082019050818103600083015261178c8184611739565b905092915050565b60006020820190506117a96000830184611349565b9291505056fea2646970667358221220c41e21ab7ad418697cfdaeab9b3ebbe94b732e8ba3ecbf4da8602297ccf67da664736f6c63430008090033",
  "devdoc": {
    "author": "Spencer Shelton",
    "details": "This implements chainlink VRF v2 and Chainlink keepers",
    "kind": "dev",
    "methods": {
      "checkUpkeep(bytes)": {
        "details": "This is the function that the chainlink keeper nodes call they look for the 1upkeepneeded to return true the following should be true in order to return true 1. Our time interval should have passed 2. The lotery should have at least 1 player, and have some ETH 3. Our subscription is funded with LINK 4. The lottery should be in an open state"
      }
    },
    "title": "A Sample Raffle Contract",
    "version": 1
  },
  "userdoc": {
    "kind": "user",
    "methods": {},
    "notice": "This contract is for creating an untamperable decentralized smart contract",
    "version": 1
  },
  "storageLayout": {
    "storage": [
      {
        "astId": 198,
        "contract": "contracts/Raffle.sol:Raffle",
        "label": "s_players",
        "offset": 0,
        "slot": "0",
        "type": "t_array(t_address_payable)dyn_storage"
      },
      {
        "astId": 215,
        "contract": "contracts/Raffle.sol:Raffle",
        "label": "s_recentWinner",
        "offset": 0,
        "slot": "1",
        "type": "t_address"
      },
      {
        "astId": 218,
        "contract": "contracts/Raffle.sol:Raffle",
        "label": "s_raffleState",
        "offset": 20,
        "slot": "1",
        "type": "t_enum(RaffleState)193"
      },
      {
        "astId": 220,
        "contract": "contracts/Raffle.sol:Raffle",
        "label": "s_lastTimeStamp",
        "offset": 0,
        "slot": "2",
        "type": "t_uint256"
      }
    ],
    "types": {
      "t_address": {
        "encoding": "inplace",
        "label": "address",
        "numberOfBytes": "20"
      },
      "t_address_payable": {
        "encoding": "inplace",
        "label": "address payable",
        "numberOfBytes": "20"
      },
      "t_array(t_address_payable)dyn_storage": {
        "base": "t_address_payable",
        "encoding": "dynamic_array",
        "label": "address payable[]",
        "numberOfBytes": "32"
      },
      "t_enum(RaffleState)193": {
        "encoding": "inplace",
        "label": "enum Raffle.RaffleState",
        "numberOfBytes": "1"
      },
      "t_uint256": {
        "encoding": "inplace",
        "label": "uint256",
        "numberOfBytes": "32"
      }
    }
  }
}