{
  "address": "0x3142Df40B461a7dC417C72Aad9753FcD978913d3",
  "abi": [
    {
      "inputs": [
        {
          "internalType": "uint256",
          "name": "entranceFee",
          "type": "uint256"
        },
        {
          "internalType": "address",
          "name": "vrfCoordinatorV2",
          "type": "address"
        },
        {
          "internalType": "bytes32",
          "name": "maxGasWillingToPayForRandomNumber",
          "type": "bytes32"
        },
        {
          "internalType": "uint64",
          "name": "subscriptionID",
          "type": "uint64"
        },
        {
          "internalType": "uint32",
          "name": "callbackGasLimit",
          "type": "uint32"
        },
        {
          "internalType": "uint256",
          "name": "interval",
          "type": "uint256"
        }
      ],
      "stateMutability": "nonpayable",
      "type": "constructor"
    },
    {
      "inputs": [],
      "name": "NotEnoughFunds",
      "type": "error"
    },
    {
      "inputs": [
        {
          "internalType": "address",
          "name": "have",
          "type": "address"
        },
        {
          "internalType": "address",
          "name": "want",
          "type": "address"
        }
      ],
      "name": "OnlyCoordinatorCanFulfill",
      "type": "error"
    },
    {
      "inputs": [],
      "name": "RaffleNotOpen",
      "type": "error"
    },
    {
      "inputs": [
        {
          "internalType": "uint256",
          "name": "currentBalance",
          "type": "uint256"
        },
        {
          "internalType": "uint256",
          "name": "numPlayers",
          "type": "uint256"
        },
        {
          "internalType": "uint256",
          "name": "raffleState",
          "type": "uint256"
        }
      ],
      "name": "Raffle_UpkeepNotNeeded",
      "type": "error"
    },
    {
      "inputs": [],
      "name": "TransferFailded",
      "type": "error"
    },
    {
      "anonymous": false,
      "inputs": [
        {
          "indexed": true,
          "internalType": "address",
          "name": "player",
          "type": "address"
        }
      ],
      "name": "RaffleEnter",
      "type": "event"
    },
    {
      "anonymous": false,
      "inputs": [
        {
          "indexed": true,
          "internalType": "uint256",
          "name": "requestId",
          "type": "uint256"
        }
      ],
      "name": "RequestedRaffleWinner",
      "type": "event"
    },
    {
      "anonymous": false,
      "inputs": [
        {
          "indexed": true,
          "internalType": "address",
          "name": "winner",
          "type": "address"
        }
      ],
      "name": "WinnerPicked",
      "type": "event"
    },
    {
      "inputs": [
        {
          "internalType": "bytes",
          "name": "",
          "type": "bytes"
        }
      ],
      "name": "checkUpkeep",
      "outputs": [
        {
          "internalType": "bool",
          "name": "upkeepNeeded",
          "type": "bool"
        },
        {
          "internalType": "bytes",
          "name": "",
          "type": "bytes"
        }
      ],
      "stateMutability": "view",
      "type": "function"
    },
    {
      "inputs": [],
      "name": "enterRaffle",
      "outputs": [],
      "stateMutability": "payable",
      "type": "function"
    },
    {
      "inputs": [],
      "name": "getEntranceFee",
      "outputs": [
        {
          "internalType": "uint256",
          "name": "",
          "type": "uint256"
        }
      ],
      "stateMutability": "view",
      "type": "function"
    },
    {
      "inputs": [],
      "name": "getInterval",
      "outputs": [
        {
          "internalType": "uint256",
          "name": "",
          "type": "uint256"
        }
      ],
      "stateMutability": "view",
      "type": "function"
    },
    {
      "inputs": [],
      "name": "getLatestTimeStamp",
      "outputs": [
        {
          "internalType": "uint256",
          "name": "",
          "type": "uint256"
        }
      ],
      "stateMutability": "view",
      "type": "function"
    },
    {
      "inputs": [],
      "name": "getNumWords",
      "outputs": [
        {
          "internalType": "uint256",
          "name": "",
          "type": "uint256"
        }
      ],
      "stateMutability": "pure",
      "type": "function"
    },
    {
      "inputs": [],
      "name": "getNumberOfPlayers",
      "outputs": [
        {
          "internalType": "uint256",
          "name": "",
          "type": "uint256"
        }
      ],
      "stateMutability": "view",
      "type": "function"
    },
    {
      "inputs": [
        {
          "internalType": "uint256",
          "name": "index",
          "type": "uint256"
        }
      ],
      "name": "getPlayer",
      "outputs": [
        {
          "internalType": "address",
          "name": "",
          "type": "address"
        }
      ],
      "stateMutability": "view",
      "type": "function"
    },
    {
      "inputs": [],
      "name": "getRaffleState",
      "outputs": [
        {
          "internalType": "enum Raffle.RaffleState",
          "name": "",
          "type": "uint8"
        }
      ],
      "stateMutability": "view",
      "type": "function"
    },
    {
      "inputs": [],
      "name": "getRecentWinner",
      "outputs": [
        {
          "internalType": "address",
          "name": "",
          "type": "address"
        }
      ],
      "stateMutability": "view",
      "type": "function"
    },
    {
      "inputs": [],
      "name": "getRequestConfirmations",
      "outputs": [
        {
          "internalType": "uint256",
          "name": "",
          "type": "uint256"
        }
      ],
      "stateMutability": "pure",
      "type": "function"
    },
    {
      "inputs": [
        {
          "internalType": "bytes",
          "name": "",
          "type": "bytes"
        }
      ],
      "name": "performUpkeep",
      "outputs": [],
      "stateMutability": "nonpayable",
      "type": "function"
    },
    {
      "inputs": [
        {
          "internalType": "uint256",
          "name": "requestId",
          "type": "uint256"
        },
        {
          "internalType": "uint256[]",
          "name": "randomWords",
          "type": "uint256[]"
        }
      ],
      "name": "rawFulfillRandomWords",
      "outputs": [],
      "stateMutability": "nonpayable",
      "type": "function"
    }
  ],
  "transactionHash": "0xa3e3e5eadb3cab0a4e5d84458e936db94361762c3cb2a6c2a72b5498e7ac8752",
  "args": [
    "10000000000000000",
    "0x6168499c0cFfCaCD319c818142124B7A15E857ab",
    "0xd89b2bf150e3b9e13446986e571fb9cab24b13cea0a43ea20a6049a85cc807cc",
    "19682",
    "500000",
    "30"
  ],
  "numDeployments": 1,
  "solcInputHash": "cee5c3c218d2a0076c3dbc4feda35642",
  "bytecode": "0x6101606040523480156200001257600080fd5b506040516200185d3803806200185d833981810160405281019062000038919062000294565b848073ffffffffffffffffffffffffffffffffffffffff1660808173ffffffffffffffffffffffffffffffffffffffff1681525050508560a081815250508473ffffffffffffffffffffffffffffffffffffffff1660c08173ffffffffffffffffffffffffffffffffffffffff16815250508360e081815250508267ffffffffffffffff166101008167ffffffffffffffff16815250508163ffffffff166101208163ffffffff16815250506000600160146101000a81548160ff021916908360018111156200010d576200010c62000330565b5b0217905550426002819055508061014081815250505050505050506200035f565b600080fd5b6000819050919050565b620001488162000133565b81146200015457600080fd5b50565b60008151905062000168816200013d565b92915050565b600073ffffffffffffffffffffffffffffffffffffffff82169050919050565b60006200019b826200016e565b9050919050565b620001ad816200018e565b8114620001b957600080fd5b50565b600081519050620001cd81620001a2565b92915050565b6000819050919050565b620001e881620001d3565b8114620001f457600080fd5b50565b6000815190506200020881620001dd565b92915050565b600067ffffffffffffffff82169050919050565b6200022d816200020e565b81146200023957600080fd5b50565b6000815190506200024d8162000222565b92915050565b600063ffffffff82169050919050565b6200026e8162000253565b81146200027a57600080fd5b50565b6000815190506200028e8162000263565b92915050565b60008060008060008060c08789031215620002b457620002b36200012e565b5b6000620002c489828a0162000157565b9650506020620002d789828a01620001bc565b9550506040620002ea89828a01620001f7565b9450506060620002fd89828a016200023c565b93505060806200031089828a016200027d565b92505060a06200032389828a0162000157565b9150509295509295509295565b7f4e487b7100000000000000000000000000000000000000000000000000000000600052602160045260246000fd5b60805160a05160c05160e05161010051610120516101405161148e620003cf6000396000818161068b01526106f901526000610a4f01526000610a2c01526000610a0b015260006109cf0152600081816102fa01526103f7015260008181610337015261038b015261148e6000f3fe6080604052600436106100c25760003560e01c8063473f1ddc1161007f5780636e04ff0d116100595780636e04ff0d1461022557806391ad27b414610263578063e55ae4e81461028e578063fd6673f5146102cb576100c2565b8063473f1ddc146101a457806353a2c19a146101cf5780635f1b0fd8146101fa576100c2565b806309bc33a7146100c7578063115cbaf5146100f25780631fe543e31461011d5780632cfcc53914610146578063320229eb146101505780634585e33b1461017b575b600080fd5b3480156100d357600080fd5b506100dc6102f6565b6040516100e99190610bd4565b60405180910390f35b3480156100fe57600080fd5b5061010761031e565b6040516101149190610c66565b60405180910390f35b34801561012957600080fd5b50610144600480360381019061013f9190610e1a565b610335565b005b61014e6103f5565b005b34801561015c57600080fd5b50610165610564565b6040516101729190610bd4565b60405180910390f35b34801561018757600080fd5b506101a2600480360381019061019d9190610ed1565b61056e565b005b3480156101b057600080fd5b506101b9610604565b6040516101c69190610f5f565b60405180910390f35b3480156101db57600080fd5b506101e461062e565b6040516101f19190610bd4565b60405180910390f35b34801561020657600080fd5b5061020f61063b565b60405161021c9190610bd4565b60405180910390f35b34801561023157600080fd5b5061024c6004803603810190610247919061102f565b610648565b60405161025a92919061111b565b60405180910390f35b34801561026f57600080fd5b506102786106f5565b6040516102859190610bd4565b60405180910390f35b34801561029a57600080fd5b506102b560048036038101906102b0919061114b565b61071d565b6040516102c29190610f5f565b60405180910390f35b3480156102d757600080fd5b506102e0610764565b6040516102ed9190610bd4565b60405180910390f35b60007f0000000000000000000000000000000000000000000000000000000000000000905090565b6000600160149054906101000a900460ff16905090565b7f000000000000000000000000000000000000000000000000000000000000000073ffffffffffffffffffffffffffffffffffffffff163373ffffffffffffffffffffffffffffffffffffffff16146103e757337f00000000000000000000000000000000000000000000000000000000000000006040517f1cf993f40000000000000000000000000000000000000000000000000000000081526004016103de929190611178565b60405180910390fd5b6103f18282610770565b5050565b7f000000000000000000000000000000000000000000000000000000000000000034101561044f576040517f81b5ad6800000000000000000000000000000000000000000000000000000000815260040160405180910390fd5b6000600181111561046357610462610bef565b5b600160149054906101000a900460ff16600181111561048557610484610bef565b5b146104bc576040517fee0eb16d00000000000000000000000000000000000000000000000000000000815260040160405180910390fd5b6000339080600181540180825580915050600190039060005260206000200160009091909190916101000a81548173ffffffffffffffffffffffffffffffffffffffff021916908373ffffffffffffffffffffffffffffffffffffffff1602179055503373ffffffffffffffffffffffffffffffffffffffff167f0805e1d667bddb8a95f0f09880cf94f403fb596ce79928d9f29b74203ba284d460405160405180910390a2565b6000600254905090565b600061058860405180602001604052806000815250610648565b509050806105f75747600080549050600160149054906101000a900460ff1660018111156105b9576105b8610bef565b5b6040517fe059521b0000000000000000000000000000000000000000000000000000000081526004016105ee939291906111a1565b60405180910390fd5b6105ff6109a1565b505050565b6000600160009054906101000a900473ffffffffffffffffffffffffffffffffffffffff16905090565b6000600161ffff16905090565b6000600361ffff16905090565b600060606000600160149054906101000a900460ff1660018111156106705761066f610bef565b5b6000600181111561068457610683610bef565b5b14905060007f0000000000000000000000000000000000000000000000000000000000000000600254426106b89190611207565b119050600080600080549050119050600080471190508380156106d85750825b80156106e15750815b80156106ea5750805b955050505050915091565b60007f0000000000000000000000000000000000000000000000000000000000000000905090565b60008082815481106107325761073161123b565b5b9060005260206000200160009054906101000a900473ffffffffffffffffffffffffffffffffffffffff169050919050565b60008080549050905090565b600080805490508260008151811061078b5761078a61123b565b5b602002602001015161079d9190611299565b905060008082815481106107b4576107b361123b565b5b9060005260206000200160009054906101000a900473ffffffffffffffffffffffffffffffffffffffff16905080600160006101000a81548173ffffffffffffffffffffffffffffffffffffffff021916908373ffffffffffffffffffffffffffffffffffffffff1602179055506000600160146101000a81548160ff0219169083600181111561084857610847610bef565b5b0217905550600067ffffffffffffffff81111561086857610867610cd7565b5b6040519080825280602002602001820160405280156108965781602001602082028036833780820191505090505b50600090805190602001906108ac929190610b14565b504260028190555060008173ffffffffffffffffffffffffffffffffffffffff16476040516108da906112fb565b60006040518083038185875af1925050503d8060008114610917576040519150601f19603f3d011682016040523d82523d6000602084013e61091c565b606091505b5050905080610957576040517f5e72779500000000000000000000000000000000000000000000000000000000815260040160405180910390fd5b8173ffffffffffffffffffffffffffffffffffffffff167f5b690ec4a06fe979403046eaeea5b3ce38524683c3001f662c8b5a829632f7df60405160405180910390a25050505050565b60018060146101000a81548160ff021916908360018111156109c6576109c5610bef565b5b021790555060007f000000000000000000000000000000000000000000000000000000000000000073ffffffffffffffffffffffffffffffffffffffff16635d3b1d307f00000000000000000000000000000000000000000000000000000000000000007f000000000000000000000000000000000000000000000000000000000000000060037f000000000000000000000000000000000000000000000000000000000000000060016040518663ffffffff1660e01b8152600401610a909594939291906113c3565b602060405180830381600087803b158015610aaa57600080fd5b505af1158015610abe573d6000803e3d6000fd5b505050506040513d601f19601f82011682018060405250810190610ae2919061142b565b9050807fcd6e45c8998311cab7e9d4385596cac867e20a0587194b954fa3a731c93ce78b60405160405180910390a250565b828054828255906000526020600020908101928215610b8d579160200282015b82811115610b8c5782518260006101000a81548173ffffffffffffffffffffffffffffffffffffffff021916908373ffffffffffffffffffffffffffffffffffffffff16021790555091602001919060010190610b34565b5b509050610b9a9190610b9e565b5090565b5b80821115610bb7576000816000905550600101610b9f565b5090565b6000819050919050565b610bce81610bbb565b82525050565b6000602082019050610be96000830184610bc5565b92915050565b7f4e487b7100000000000000000000000000000000000000000000000000000000600052602160045260246000fd5b60028110610c2f57610c2e610bef565b5b50565b6000819050610c4082610c1e565b919050565b6000610c5082610c32565b9050919050565b610c6081610c45565b82525050565b6000602082019050610c7b6000830184610c57565b92915050565b6000604051905090565b600080fd5b600080fd5b610c9e81610bbb565b8114610ca957600080fd5b50565b600081359050610cbb81610c95565b92915050565b600080fd5b6000601f19601f8301169050919050565b7f4e487b7100000000000000000000000000000000000000000000000000000000600052604160045260246000fd5b610d0f82610cc6565b810181811067ffffffffffffffff82111715610d2e57610d2d610cd7565b5b80604052505050565b6000610d41610c81565b9050610d4d8282610d06565b919050565b600067ffffffffffffffff821115610d6d57610d6c610cd7565b5b602082029050602081019050919050565b600080fd5b6000610d96610d9184610d52565b610d37565b90508083825260208201905060208402830185811115610db957610db8610d7e565b5b835b81811015610de25780610dce8882610cac565b845260208401935050602081019050610dbb565b5050509392505050565b600082601f830112610e0157610e00610cc1565b5b8135610e11848260208601610d83565b91505092915050565b60008060408385031215610e3157610e30610c8b565b5b6000610e3f85828601610cac565b925050602083013567ffffffffffffffff811115610e6057610e5f610c90565b5b610e6c85828601610dec565b9150509250929050565b600080fd5b60008083601f840112610e9157610e90610cc1565b5b8235905067ffffffffffffffff811115610eae57610ead610e76565b5b602083019150836001820283011115610eca57610ec9610d7e565b5b9250929050565b60008060208385031215610ee857610ee7610c8b565b5b600083013567ffffffffffffffff811115610f0657610f05610c90565b5b610f1285828601610e7b565b92509250509250929050565b600073ffffffffffffffffffffffffffffffffffffffff82169050919050565b6000610f4982610f1e565b9050919050565b610f5981610f3e565b82525050565b6000602082019050610f746000830184610f50565b92915050565b600080fd5b600067ffffffffffffffff821115610f9a57610f99610cd7565b5b610fa382610cc6565b9050602081019050919050565b82818337600083830152505050565b6000610fd2610fcd84610f7f565b610d37565b905082815260208101848484011115610fee57610fed610f7a565b5b610ff9848285610fb0565b509392505050565b600082601f83011261101657611015610cc1565b5b8135611026848260208601610fbf565b91505092915050565b60006020828403121561104557611044610c8b565b5b600082013567ffffffffffffffff81111561106357611062610c90565b5b61106f84828501611001565b91505092915050565b60008115159050919050565b61108d81611078565b82525050565b600081519050919050565b600082825260208201905092915050565b60005b838110156110cd5780820151818401526020810190506110b2565b838111156110dc576000848401525b50505050565b60006110ed82611093565b6110f7818561109e565b93506111078185602086016110af565b61111081610cc6565b840191505092915050565b60006040820190506111306000830185611084565b818103602083015261114281846110e2565b90509392505050565b60006020828403121561116157611160610c8b565b5b600061116f84828501610cac565b91505092915050565b600060408201905061118d6000830185610f50565b61119a6020830184610f50565b9392505050565b60006060820190506111b66000830186610bc5565b6111c36020830185610bc5565b6111d06040830184610bc5565b949350505050565b7f4e487b7100000000000000000000000000000000000000000000000000000000600052601160045260246000fd5b600061121282610bbb565b915061121d83610bbb565b9250828210156112305761122f6111d8565b5b828203905092915050565b7f4e487b7100000000000000000000000000000000000000000000000000000000600052603260045260246000fd5b7f4e487b7100000000000000000000000000000000000000000000000000000000600052601260045260246000fd5b60006112a482610bbb565b91506112af83610bbb565b9250826112bf576112be61126a565b5b828206905092915050565b600081905092915050565b50565b60006112e56000836112ca565b91506112f0826112d5565b600082019050919050565b6000611306826112d8565b9150819050919050565b6000819050919050565b61132381611310565b82525050565b600067ffffffffffffffff82169050919050565b61134681611329565b82525050565b600061ffff82169050919050565b6113638161134c565b82525050565b600063ffffffff82169050919050565b61138281611369565b82525050565b6000819050919050565b60006113ad6113a86113a38461134c565b611388565b611369565b9050919050565b6113bd81611392565b82525050565b600060a0820190506113d8600083018861131a565b6113e5602083018761133d565b6113f2604083018661135a565b6113ff6060830185611379565b61140c60808301846113b4565b9695505050505050565b60008151905061142581610c95565b92915050565b60006020828403121561144157611440610c8b565b5b600061144f84828501611416565b9150509291505056fea26469706673582212208ef231ddd066af57c0edb8abf489c45c2183c8b12aa47039e6701fd606d65e9364736f6c63430008090033",
  "devdoc": {
    "author": "Spencer Shelton",
    "details": "This implements chainlink VRF v2 and Chainlink keepers",
    "kind": "dev",
    "methods": {
      "checkUpkeep(bytes)": {
        "details": "This is the function that the chainlink keeper nodes call they look for the 1upkeepneeded to return true the following should be true in order to return true 1. Our time interval should have passed 2. The lotery should have at least 1 player, and have some ETH 3. Our subscription is funded with LINK 4. The lottery should be in an open state"
      }
    },
    "title": "A Sample Raffle Contract",
    "version": 1
  },
  "userdoc": {
    "kind": "user",
    "methods": {},
    "notice": "This contract is for creating an untamperable decentralized smart contract",
    "version": 1
  },
  "storageLayout": {
    "storage": [
      {
        "astId": 198,
        "contract": "contracts/Raffle.sol:Raffle",
        "label": "s_players",
        "offset": 0,
        "slot": "0",
        "type": "t_array(t_address_payable)dyn_storage"
      },
      {
        "astId": 215,
        "contract": "contracts/Raffle.sol:Raffle",
        "label": "s_recentWinner",
        "offset": 0,
        "slot": "1",
        "type": "t_address"
      },
      {
        "astId": 218,
        "contract": "contracts/Raffle.sol:Raffle",
        "label": "s_raffleState",
        "offset": 20,
        "slot": "1",
        "type": "t_enum(RaffleState)193"
      },
      {
        "astId": 220,
        "contract": "contracts/Raffle.sol:Raffle",
        "label": "s_lastTimeStamp",
        "offset": 0,
        "slot": "2",
        "type": "t_uint256"
      }
    ],
    "types": {
      "t_address": {
        "encoding": "inplace",
        "label": "address",
        "numberOfBytes": "20"
      },
      "t_address_payable": {
        "encoding": "inplace",
        "label": "address payable",
        "numberOfBytes": "20"
      },
      "t_array(t_address_payable)dyn_storage": {
        "base": "t_address_payable",
        "encoding": "dynamic_array",
        "label": "address payable[]",
        "numberOfBytes": "32"
      },
      "t_enum(RaffleState)193": {
        "encoding": "inplace",
        "label": "enum Raffle.RaffleState",
        "numberOfBytes": "1"
      },
      "t_uint256": {
        "encoding": "inplace",
        "label": "uint256",
        "numberOfBytes": "32"
      }
    }
  }
}